{
  "contractName": "DRTM",
  "abi": [
    {
      "inputs": [],
      "stateMutability": "nonpayable",
      "type": "constructor"
    },
    {
      "anonymous": false,
      "inputs": [
        {
          "indexed": true,
          "internalType": "address",
          "name": "admin",
          "type": "address"
        }
      ],
      "name": "AdminAdded",
      "type": "event"
    },
    {
      "anonymous": false,
      "inputs": [
        {
          "indexed": true,
          "internalType": "address",
          "name": "admin",
          "type": "address"
        }
      ],
      "name": "AdminRemoved",
      "type": "event"
    },
    {
      "anonymous": false,
      "inputs": [
        {
          "indexed": false,
          "internalType": "uint256",
          "name": "newFee",
          "type": "uint256"
        }
      ],
      "name": "BookingFeeChanged",
      "type": "event"
    },
    {
      "anonymous": false,
      "inputs": [
        {
          "indexed": true,
          "internalType": "address",
          "name": "oldOwner",
          "type": "address"
        },
        {
          "indexed": true,
          "internalType": "address",
          "name": "newOwner",
          "type": "address"
        }
      ],
      "name": "OwnerTransferred",
      "type": "event"
    },
    {
      "anonymous": false,
      "inputs": [
        {
          "indexed": true,
          "internalType": "address",
          "name": "addr",
          "type": "address"
        },
        {
          "indexed": false,
          "internalType": "uint256",
          "name": "id",
          "type": "uint256"
        },
        {
          "indexed": false,
          "internalType": "string",
          "name": "name",
          "type": "string"
        },
        {
          "indexed": false,
          "internalType": "uint8",
          "name": "age",
          "type": "uint8"
        },
        {
          "indexed": false,
          "internalType": "string",
          "name": "gender",
          "type": "string"
        },
        {
          "indexed": false,
          "internalType": "string",
          "name": "district",
          "type": "string"
        },
        {
          "indexed": false,
          "internalType": "enum DRTM.TrainingType",
          "name": "trainingType",
          "type": "uint8"
        }
      ],
      "name": "PartRegistered",
      "type": "event"
    },
    {
      "anonymous": false,
      "inputs": [
        {
          "indexed": true,
          "internalType": "address",
          "name": "partAddr",
          "type": "address"
        },
        {
          "indexed": false,
          "internalType": "enum DRTM.TrainingType",
          "name": "trainingType",
          "type": "uint8"
        },
        {
          "indexed": false,
          "internalType": "bool",
          "name": "hasCompletedTraining",
          "type": "bool"
        }
      ],
      "name": "PartUpdated",
      "type": "event"
    },
    {
      "anonymous": false,
      "inputs": [
        {
          "indexed": true,
          "internalType": "address",
          "name": "partAddr",
          "type": "address"
        },
        {
          "indexed": true,
          "internalType": "address",
          "name": "trainerAddr",
          "type": "address"
        },
        {
          "indexed": true,
          "internalType": "uint32",
          "name": "dayKey",
          "type": "uint32"
        },
        {
          "indexed": false,
          "internalType": "uint16",
          "name": "startMin",
          "type": "uint16"
        },
        {
          "indexed": false,
          "internalType": "uint16",
          "name": "endMin",
          "type": "uint16"
        },
        {
          "indexed": false,
          "internalType": "address",
          "name": "adminPayee",
          "type": "address"
        },
        {
          "indexed": false,
          "internalType": "uint256",
          "name": "fee",
          "type": "uint256"
        }
      ],
      "name": "SlotBooked",
      "type": "event"
    },
    {
      "anonymous": false,
      "inputs": [
        {
          "indexed": true,
          "internalType": "address",
          "name": "addr",
          "type": "address"
        },
        {
          "indexed": false,
          "internalType": "uint256",
          "name": "id",
          "type": "uint256"
        },
        {
          "indexed": false,
          "internalType": "string",
          "name": "name",
          "type": "string"
        },
        {
          "indexed": false,
          "internalType": "string",
          "name": "district",
          "type": "string"
        }
      ],
      "name": "TrainerRegistered",
      "type": "event"
    },
    {
      "inputs": [],
      "name": "bookingFee",
      "outputs": [
        {
          "internalType": "uint256",
          "name": "",
          "type": "uint256"
        }
      ],
      "stateMutability": "view",
      "type": "function"
    },
    {
      "inputs": [
        {
          "internalType": "address",
          "name": "",
          "type": "address"
        }
      ],
      "name": "isAdmin",
      "outputs": [
        {
          "internalType": "bool",
          "name": "",
          "type": "bool"
        }
      ],
      "stateMutability": "view",
      "type": "function"
    },
    {
      "inputs": [],
      "name": "ownerAddr",
      "outputs": [
        {
          "internalType": "address",
          "name": "",
          "type": "address"
        }
      ],
      "stateMutability": "view",
      "type": "function"
    },
    {
      "inputs": [
        {
          "internalType": "address",
          "name": "",
          "type": "address"
        }
      ],
      "name": "parts",
      "outputs": [
        {
          "internalType": "uint256",
          "name": "id",
          "type": "uint256"
        },
        {
          "internalType": "string",
          "name": "name",
          "type": "string"
        },
        {
          "internalType": "uint8",
          "name": "age",
          "type": "uint8"
        },
        {
          "internalType": "string",
          "name": "gender",
          "type": "string"
        },
        {
          "internalType": "string",
          "name": "district",
          "type": "string"
        },
        {
          "internalType": "enum DRTM.TrainingType",
          "name": "trainingType",
          "type": "uint8"
        },
        {
          "internalType": "bool",
          "name": "hasCompletedTraining",
          "type": "bool"
        },
        {
          "internalType": "bool",
          "name": "exists",
          "type": "bool"
        }
      ],
      "stateMutability": "view",
      "type": "function"
    },
    {
      "inputs": [
        {
          "internalType": "address",
          "name": "",
          "type": "address"
        }
      ],
      "name": "trainers",
      "outputs": [
        {
          "internalType": "uint256",
          "name": "id",
          "type": "uint256"
        },
        {
          "internalType": "string",
          "name": "name",
          "type": "string"
        },
        {
          "internalType": "string",
          "name": "district",
          "type": "string"
        },
        {
          "internalType": "bool",
          "name": "exists",
          "type": "bool"
        }
      ],
      "stateMutability": "view",
      "type": "function"
    },
    {
      "inputs": [
        {
          "internalType": "address",
          "name": "newOwner",
          "type": "address"
        }
      ],
      "name": "transferOwnership",
      "outputs": [],
      "stateMutability": "nonpayable",
      "type": "function"
    },
    {
      "inputs": [
        {
          "internalType": "address",
          "name": "addr",
          "type": "address"
        }
      ],
      "name": "addAdmin",
      "outputs": [],
      "stateMutability": "nonpayable",
      "type": "function"
    },
    {
      "inputs": [
        {
          "internalType": "address",
          "name": "addr",
          "type": "address"
        }
      ],
      "name": "removeAdmin",
      "outputs": [],
      "stateMutability": "nonpayable",
      "type": "function"
    },
    {
      "inputs": [
        {
          "internalType": "uint256",
          "name": "newFee",
          "type": "uint256"
        }
      ],
      "name": "setBookingFee",
      "outputs": [],
      "stateMutability": "nonpayable",
      "type": "function"
    },
    {
      "inputs": [
        {
          "internalType": "uint256",
          "name": "_id",
          "type": "uint256"
        },
        {
          "internalType": "string",
          "name": "_name",
          "type": "string"
        },
        {
          "internalType": "uint8",
          "name": "_age",
          "type": "uint8"
        },
        {
          "internalType": "string",
          "name": "_gender",
          "type": "string"
        },
        {
          "internalType": "string",
          "name": "_district",
          "type": "string"
        },
        {
          "internalType": "enum DRTM.TrainingType",
          "name": "_trainingtype",
          "type": "uint8"
        }
      ],
      "name": "registerPart",
      "outputs": [],
      "stateMutability": "nonpayable",
      "type": "function"
    },
    {
      "inputs": [
        {
          "internalType": "uint256",
          "name": "_id",
          "type": "uint256"
        },
        {
          "internalType": "string",
          "name": "_name",
          "type": "string"
        },
        {
          "internalType": "string",
          "name": "_district",
          "type": "string"
        }
      ],
      "name": "registerTrainer",
      "outputs": [],
      "stateMutability": "nonpayable",
      "type": "function"
    },
    {
      "inputs": [
        {
          "internalType": "address",
          "name": "partAddr",
          "type": "address"
        },
        {
          "internalType": "enum DRTM.TrainingType",
          "name": "newType",
          "type": "uint8"
        },
        {
          "internalType": "bool",
          "name": "updateType",
          "type": "bool"
        },
        {
          "internalType": "bool",
          "name": "setCompletedToTrue",
          "type": "bool"
        }
      ],
      "name": "adminUpdatePart",
      "outputs": [],
      "stateMutability": "nonpayable",
      "type": "function"
    },
    {
      "inputs": [
        {
          "internalType": "address",
          "name": "trainerAddr",
          "type": "address"
        },
        {
          "internalType": "uint32",
          "name": "dayKey",
          "type": "uint32"
        },
        {
          "internalType": "uint16",
          "name": "startMin",
          "type": "uint16"
        },
        {
          "internalType": "address payable",
          "name": "adminPayee",
          "type": "address"
        }
      ],
      "name": "bookSlot",
      "outputs": [],
      "stateMutability": "payable",
      "type": "function"
    },
    {
      "inputs": [
        {
          "internalType": "address",
          "name": "trainerAddr",
          "type": "address"
        },
        {
          "internalType": "uint32",
          "name": "dayKey",
          "type": "uint32"
        }
      ],
      "name": "getTrainerSchedByDay",
      "outputs": [
        {
          "internalType": "address[]",
          "name": "partsOut",
          "type": "address[]"
        },
        {
          "internalType": "uint16[]",
          "name": "startMinsOut",
          "type": "uint16[]"
        },
        {
          "internalType": "uint16[]",
          "name": "endMinsOut",
          "type": "uint16[]"
        }
      ],
      "stateMutability": "view",
      "type": "function"
    },
    {
      "inputs": [
        {
          "internalType": "address",
          "name": "trainerAddr",
          "type": "address"
        },
        {
          "internalType": "uint32",
          "name": "dayKey",
          "type": "uint32"
        },
        {
          "internalType": "uint16",
          "name": "startMin",
          "type": "uint16"
        }
      ],
      "name": "getSlot",
      "outputs": [
        {
          "components": [
            {
              "internalType": "address",
              "name": "partAddr",
              "type": "address"
            },
            {
              "internalType": "uint32",
              "name": "dayKey",
              "type": "uint32"
            },
            {
              "internalType": "uint16",
              "name": "startMin",
              "type": "uint16"
            },
            {
              "internalType": "uint16",
              "name": "endMin",
              "type": "uint16"
            },
            {
              "internalType": "bool",
              "name": "exists",
              "type": "bool"
            }
          ],
          "internalType": "struct DRTM.Bkg",
          "name": "",
          "type": "tuple"
        }
      ],
      "stateMutability": "view",
      "type": "function"
    },
    {
      "inputs": [
        {
          "internalType": "uint16",
          "name": "hour24",
          "type": "uint16"
        },
        {
          "internalType": "uint16",
          "name": "min",
          "type": "uint16"
        }
      ],
      "name": "hhmmToMins",
      "outputs": [
        {
          "internalType": "uint16",
          "name": "",
          "type": "uint16"
        }
      ],
      "stateMutability": "pure",
      "type": "function"
    }
  ],
  "bytecode": "0x60806040526103e8600455348015610015575f80fd5b50335f806101000a81548173ffffffffffffffffffffffffffffffffffffffff021916908373ffffffffffffffffffffffffffffffffffffffff1602179055506001805f3373ffffffffffffffffffffffffffffffffffffffff1673ffffffffffffffffffffffffffffffffffffffff1681526020019081526020015f205f6101000a81548160ff0219169083151502179055503373ffffffffffffffffffffffffffffffffffffffff167f44d6d25963f097ad14f29f06854a01f575648a1ef82f30e562ccd3889717e33960405160405180910390a2613e30806100f95f395ff3fe6080604052600436106100f2575f3560e01c80636c788a0d11610089578063b0fe2eab11610058578063b0fe2eab1461034a578063bf88237414610372578063c8a999581461038e578063f2fde38b146103ca576100f2565b80636c788a0d1461028b57806370480275146102b5578063778b8a15146102dd5780639c675eaa14610320576100f2565b806344cb674d116100c557806344cb674d146101d55780634f2a75f1146101fd57806360d602381461023b5780636850004414610263576100f2565b80631785f53c146100f657806324d7806c1461011e5780632cd92f971461015a5780633d08688614610199575b5f80fd5b348015610101575f80fd5b5061011c60048036038101906101179190612442565b6103f2565b005b348015610129575f80fd5b50610144600480360381019061013f9190612442565b61062f565b6040516101519190612487565b60405180910390f35b348015610165575f80fd5b50610180600480360381019061017b9190612442565b61064c565b6040516101909493929190612542565b60405180910390f35b3480156101a4575f80fd5b506101bf60048036038101906101ba91906125ca565b610790565b6040516101cc9190612617565b60405180910390f35b3480156101e0575f80fd5b506101fb60048036038101906101f6919061267d565b610808565b005b348015610208575f80fd5b50610223600480360381019061021e919061271a565b610aaf565b604051610232939291906128c6565b60405180910390f35b348015610246575f80fd5b50610261600480360381019061025c919061299b565b610db1565b005b34801561026e575f80fd5b5061028960048036038101906102849190612a62565b611062565b005b348015610296575f80fd5b5061029f611510565b6040516102ac9190612b4b565b60405180910390f35b3480156102c0575f80fd5b506102db60048036038101906102d69190612442565b611516565b005b3480156102e8575f80fd5b5061030360048036038101906102fe9190612442565b611735565b604051610317989796959493929190612be6565b60405180910390f35b34801561032b575f80fd5b5061033461193d565b6040516103419190612c86565b60405180910390f35b348015610355575f80fd5b50610370600480360381019061036b9190612c9f565b611960565b005b61038c60048036038101906103879190612d05565b611a2e565b005b348015610399575f80fd5b506103b460048036038101906103af9190612d69565b61207e565b6040516103c19190612e3d565b60405180910390f35b3480156103d5575f80fd5b506103f060048036038101906103eb9190612442565b6121da565b005b5f8054906101000a900473ffffffffffffffffffffffffffffffffffffffff1673ffffffffffffffffffffffffffffffffffffffff163373ffffffffffffffffffffffffffffffffffffffff161461047f576040517f08c379a000000000000000000000000000000000000000000000000000000000815260040161047690612ea0565b60405180910390fd5b5f8054906101000a900473ffffffffffffffffffffffffffffffffffffffff1673ffffffffffffffffffffffffffffffffffffffff168173ffffffffffffffffffffffffffffffffffffffff160361050c576040517f08c379a000000000000000000000000000000000000000000000000000000000815260040161050390612f08565b60405180910390fd5b60015f8273ffffffffffffffffffffffffffffffffffffffff1673ffffffffffffffffffffffffffffffffffffffff1681526020019081526020015f205f9054906101000a900460ff16610595576040517f08c379a000000000000000000000000000000000000000000000000000000000815260040161058c90612f70565b60405180910390fd5b5f60015f8373ffffffffffffffffffffffffffffffffffffffff1673ffffffffffffffffffffffffffffffffffffffff1681526020019081526020015f205f6101000a81548160ff0219169083151502179055508073ffffffffffffffffffffffffffffffffffffffff167fa3b62bc36326052d97ea62d63c3d60308ed4c3ea8ac079dd8499f1e9c4f80c0f60405160405180910390a250565b6001602052805f5260405f205f915054906101000a900460ff1681565b6003602052805f5260405f205f91509050805f01549080600101805461067190612fbb565b80601f016020809104026020016040519081016040528092919081815260200182805461069d90612fbb565b80156106e85780601f106106bf576101008083540402835291602001916106e8565b820191905f5260205f20905b8154815290600101906020018083116106cb57829003601f168201915b5050505050908060020180546106fd90612fbb565b80601f016020809104026020016040519081016040528092919081815260200182805461072990612fbb565b80156107745780601f1061074b57610100808354040283529160200191610774565b820191905f5260205f20905b81548152906001019060200180831161075757829003601f168201915b505050505090806003015f9054906101000a900460ff16905084565b5f60188361ffff161080156107a95750603c8261ffff16105b6107e8576040517f08c379a00000000000000000000000000000000000000000000000000000000081526004016107df90613035565b60405180910390fd5b81603c846107f69190613080565b61080091906130bc565b905092915050565b60015f3373ffffffffffffffffffffffffffffffffffffffff1673ffffffffffffffffffffffffffffffffffffffff1681526020019081526020015f205f9054906101000a900460ff16610891576040517f08c379a00000000000000000000000000000000000000000000000000000000081526004016108889061313b565b60405180910390fd5b5f60025f8673ffffffffffffffffffffffffffffffffffffffff1673ffffffffffffffffffffffffffffffffffffffff1681526020019081526020015f2090508060050160029054906101000a900460ff16610922576040517f08c379a0000000000000000000000000000000000000000000000000000000008152600401610919906131a3565b60405180910390fd5b82156109c15760028081111561093b5761093a612b73565b5b60ff1684600281111561095157610950612b73565b5b60ff161115610995576040517f08c379a000000000000000000000000000000000000000000000000000000000815260040161098c9061320b565b60405180910390fd5b83816005015f6101000a81548160ff021916908360028111156109bb576109ba612b73565b5b02179055505b8115610a37578060050160019054906101000a900460ff1615610a19576040517f08c379a0000000000000000000000000000000000000000000000000000000008152600401610a1090613273565b60405180910390fd5b60018160050160016101000a81548160ff0219169083151502179055505b8473ffffffffffffffffffffffffffffffffffffffff167f9660853cac093824225a6a8d58832744b55b8547dc1757d50ccbbf5579bc523c826005015f9054906101000a900460ff168360050160019054906101000a900460ff16604051610aa0929190613291565b60405180910390a25050505050565b60608060605f60065f8773ffffffffffffffffffffffffffffffffffffffff1673ffffffffffffffffffffffffffffffffffffffff1681526020019081526020015f205f8663ffffffff1663ffffffff1681526020019081526020015f2090505f818054905090508067ffffffffffffffff811115610b3157610b306132b8565b5b604051908082528060200260200182016040528015610b5f5781602001602082028036833780820191505090505b5094508067ffffffffffffffff811115610b7c57610b7b6132b8565b5b604051908082528060200260200182016040528015610baa5781602001602082028036833780820191505090505b5093508067ffffffffffffffff811115610bc757610bc66132b8565b5b604051908082528060200260200182016040528015610bf55781602001602082028036833780820191505090505b5092505f5b81811015610da7575f838281548110610c1657610c156132e5565b5b905f5260205f2090601091828204019190066002029054906101000a900461ffff1690505f60055f8b73ffffffffffffffffffffffffffffffffffffffff1673ffffffffffffffffffffffffffffffffffffffff1681526020019081526020015f205f8a63ffffffff1663ffffffff1681526020019081526020015f205f8361ffff1661ffff1681526020019081526020015f209050805f015f9054906101000a900473ffffffffffffffffffffffffffffffffffffffff16888481518110610ce257610ce16132e5565b5b602002602001019073ffffffffffffffffffffffffffffffffffffffff16908173ffffffffffffffffffffffffffffffffffffffff1681525050805f0160189054906101000a900461ffff16878481518110610d4157610d406132e5565b5b602002602001019061ffff16908161ffff1681525050805f01601a9054906101000a900461ffff16868481518110610d7c57610d7b6132e5565b5b602002602001019061ffff16908161ffff168152505050508080610d9f90613312565b915050610bfa565b5050509250925092565b60035f3373ffffffffffffffffffffffffffffffffffffffff1673ffffffffffffffffffffffffffffffffffffffff1681526020019081526020015f206003015f9054906101000a900460ff1615610e3e576040517f08c379a0000000000000000000000000000000000000000000000000000000008152600401610e35906133a3565b60405180910390fd5b5f8484905011610e83576040517f08c379a0000000000000000000000000000000000000000000000000000000008152600401610e7a9061340b565b60405180910390fd5b5f8282905011610ec8576040517f08c379a0000000000000000000000000000000000000000000000000000000008152600401610ebf90613473565b60405180910390fd5b604051806080016040528086815260200185858080601f0160208091040260200160405190810160405280939291908181526020018383808284375f81840152601f19601f82011690508083019250505050505050815260200183838080601f0160208091040260200160405190810160405280939291908181526020018383808284375f81840152601f19601f8201169050808301925050505050505081526020016001151581525060035f3373ffffffffffffffffffffffffffffffffffffffff1673ffffffffffffffffffffffffffffffffffffffff1681526020019081526020015f205f820151815f01556020820151816001019081610fcc919061362e565b506040820151816002019081610fe2919061362e565b506060820151816003015f6101000a81548160ff0219169083151502179055509050503373ffffffffffffffffffffffffffffffffffffffff167f648099362da5db955e1423050fbaef1b701ef4c97df78fe7822098454fc05e188686868686604051611053959493929190613737565b60405180910390a25050505050565b60025f3373ffffffffffffffffffffffffffffffffffffffff1673ffffffffffffffffffffffffffffffffffffffff1681526020019081526020015f2060050160029054906101000a900460ff16156110f0576040517f08c379a00000000000000000000000000000000000000000000000000000000081526004016110e7906137ee565b60405180910390fd5b5f8888905011611135576040517f08c379a000000000000000000000000000000000000000000000000000000000815260040161112c9061340b565b60405180910390fd5b5f858590501161117a576040517f08c379a000000000000000000000000000000000000000000000000000000000815260040161117190613856565b60405180910390fd5b5f83839050116111bf576040517f08c379a00000000000000000000000000000000000000000000000000000000081526004016111b690613473565b60405180910390fd5b5f8660ff1611611204576040517f08c379a00000000000000000000000000000000000000000000000000000000081526004016111fb906138be565b60405180910390fd5b60028081111561121757611216612b73565b5b60ff1681600281111561122d5761122c612b73565b5b60ff161115611271576040517f08c379a00000000000000000000000000000000000000000000000000000000081526004016112689061320b565b60405180910390fd5b6040518061010001604052808a815260200189898080601f0160208091040260200160405190810160405280939291908181526020018383808284375f81840152601f19601f8201169050808301925050505050505081526020018760ff16815260200186868080601f0160208091040260200160405190810160405280939291908181526020018383808284375f81840152601f19601f82011690508083019250505050505050815260200184848080601f0160208091040260200160405190810160405280939291908181526020018383808284375f81840152601f19601f82011690508083019250505050505050815260200182600281111561137a57611379612b73565b5b81526020015f151581526020016001151581525060025f3373ffffffffffffffffffffffffffffffffffffffff1673ffffffffffffffffffffffffffffffffffffffff1681526020019081526020015f205f820151815f015560208201518160010190816113e8919061362e565b506040820151816002015f6101000a81548160ff021916908360ff160217905550606082015181600301908161141e919061362e565b506080820151816004019081611434919061362e565b5060a0820151816005015f6101000a81548160ff0219169083600281111561145f5761145e612b73565b5b021790555060c08201518160050160016101000a81548160ff02191690831515021790555060e08201518160050160026101000a81548160ff0219169083151502179055509050503373ffffffffffffffffffffffffffffffffffffffff167fb33ae30a78a5cecad01b19b14a26d52428f319a41005aefb585eaef8e5aa4bac8a8a8a8a8a8a8a8a8a6040516114fd999897969594939291906138dc565b60405180910390a2505050505050505050565b60045481565b5f8054906101000a900473ffffffffffffffffffffffffffffffffffffffff1673ffffffffffffffffffffffffffffffffffffffff163373ffffffffffffffffffffffffffffffffffffffff16146115a3576040517f08c379a000000000000000000000000000000000000000000000000000000000815260040161159a90612ea0565b60405180910390fd5b5f73ffffffffffffffffffffffffffffffffffffffff168173ffffffffffffffffffffffffffffffffffffffff1603611611576040517f08c379a0000000000000000000000000000000000000000000000000000000008152600401611608906139a0565b60405180910390fd5b60015f8273ffffffffffffffffffffffffffffffffffffffff1673ffffffffffffffffffffffffffffffffffffffff1681526020019081526020015f205f9054906101000a900460ff161561169b576040517f08c379a000000000000000000000000000000000000000000000000000000000815260040161169290613a08565b60405180910390fd5b6001805f8373ffffffffffffffffffffffffffffffffffffffff1673ffffffffffffffffffffffffffffffffffffffff1681526020019081526020015f205f6101000a81548160ff0219169083151502179055508073ffffffffffffffffffffffffffffffffffffffff167f44d6d25963f097ad14f29f06854a01f575648a1ef82f30e562ccd3889717e33960405160405180910390a250565b6002602052805f5260405f205f91509050805f01549080600101805461175a90612fbb565b80601f016020809104026020016040519081016040528092919081815260200182805461178690612fbb565b80156117d15780601f106117a8576101008083540402835291602001916117d1565b820191905f5260205f20905b8154815290600101906020018083116117b457829003601f168201915b505050505090806002015f9054906101000a900460ff16908060030180546117f890612fbb565b80601f016020809104026020016040519081016040528092919081815260200182805461182490612fbb565b801561186f5780601f106118465761010080835404028352916020019161186f565b820191905f5260205f20905b81548152906001019060200180831161185257829003601f168201915b50505050509080600401805461188490612fbb565b80601f01602080910402602001604051908101604052809291908181526020018280546118b090612fbb565b80156118fb5780601f106118d2576101008083540402835291602001916118fb565b820191905f5260205f20905b8154815290600101906020018083116118de57829003601f168201915b505050505090806005015f9054906101000a900460ff16908060050160019054906101000a900460ff16908060050160029054906101000a900460ff16905088565b5f8054906101000a900473ffffffffffffffffffffffffffffffffffffffff1681565b5f8054906101000a900473ffffffffffffffffffffffffffffffffffffffff1673ffffffffffffffffffffffffffffffffffffffff163373ffffffffffffffffffffffffffffffffffffffff16146119ed576040517f08c379a00000000000000000000000000000000000000000000000000000000081526004016119e490612ea0565b60405180910390fd5b806004819055507f964147a5344d5b924630bc2d7f18c7bdbf9d8f5ed05da7068d07b1609ebfc8be81604051611a239190612b4b565b60405180910390a150565b60025f3373ffffffffffffffffffffffffffffffffffffffff1673ffffffffffffffffffffffffffffffffffffffff1681526020019081526020015f2060050160029054906101000a900460ff16611abb576040517f08c379a0000000000000000000000000000000000000000000000000000000008152600401611ab290613a70565b60405180910390fd5b60035f8573ffffffffffffffffffffffffffffffffffffffff1673ffffffffffffffffffffffffffffffffffffffff1681526020019081526020015f206003015f9054906101000a900460ff16611b47576040517f08c379a0000000000000000000000000000000000000000000000000000000008152600401611b3e90613ad8565b60405180910390fd5b60015f8273ffffffffffffffffffffffffffffffffffffffff1673ffffffffffffffffffffffffffffffffffffffff1681526020019081526020015f205f9054906101000a900460ff16611bd0576040517f08c379a0000000000000000000000000000000000000000000000000000000008152600401611bc790613b40565b60405180910390fd5b6004543414611c14576040517f08c379a0000000000000000000000000000000000000000000000000000000008152600401611c0b90613ba8565b60405180910390fd5b6105828261ffff161115611c5d576040517f08c379a0000000000000000000000000000000000000000000000000000000008152600401611c5490613c10565b60405180910390fd5b5f601e83611c6b91906130bc565b90505f60055f8773ffffffffffffffffffffffffffffffffffffffff1673ffffffffffffffffffffffffffffffffffffffff1681526020019081526020015f205f8663ffffffff1663ffffffff1681526020019081526020015f205f8561ffff1661ffff1681526020019081526020015f209050805f01601c9054906101000a900460ff1615611d30576040517f08c379a0000000000000000000000000000000000000000000000000000000008152600401611d2790613c9e565b60405180910390fd5b6040518060a001604052803373ffffffffffffffffffffffffffffffffffffffff1681526020018663ffffffff1681526020018561ffff1681526020018361ffff1681526020016001151581525060055f8873ffffffffffffffffffffffffffffffffffffffff1673ffffffffffffffffffffffffffffffffffffffff1681526020019081526020015f205f8763ffffffff1663ffffffff1681526020019081526020015f205f8661ffff1661ffff1681526020019081526020015f205f820151815f015f6101000a81548173ffffffffffffffffffffffffffffffffffffffff021916908373ffffffffffffffffffffffffffffffffffffffff1602179055506020820151815f0160146101000a81548163ffffffff021916908363ffffffff1602179055506040820151815f0160186101000a81548161ffff021916908361ffff1602179055506060820151815f01601a6101000a81548161ffff021916908361ffff1602179055506080820151815f01601c6101000a81548160ff02191690831515021790555090505060065f8773ffffffffffffffffffffffffffffffffffffffff1673ffffffffffffffffffffffffffffffffffffffff1681526020019081526020015f205f8663ffffffff1663ffffffff1681526020019081526020015f2084908060018154018082558091505060019003905f5260205f2090601091828204019190066002029091909190916101000a81548161ffff021916908361ffff1602179055505f8373ffffffffffffffffffffffffffffffffffffffff1634604051611f8090613ce9565b5f6040518083038185875af1925050503d805f8114611fba576040519150601f19603f3d011682016040523d82523d5f602084013e611fbf565b606091505b5050905080612003576040517f08c379a0000000000000000000000000000000000000000000000000000000008152600401611ffa90613d47565b60405180910390fd5b8563ffffffff168773ffffffffffffffffffffffffffffffffffffffff163373ffffffffffffffffffffffffffffffffffffffff167f168ea10892838083aa663dc035c7263e2f21c5d7df9ca4f5879e4798136a154d8887893460405161206d9493929190613db7565b60405180910390a450505050505050565b612086612390565b60055f8573ffffffffffffffffffffffffffffffffffffffff1673ffffffffffffffffffffffffffffffffffffffff1681526020019081526020015f205f8463ffffffff1663ffffffff1681526020019081526020015f205f8361ffff1661ffff1681526020019081526020015f206040518060a00160405290815f82015f9054906101000a900473ffffffffffffffffffffffffffffffffffffffff1673ffffffffffffffffffffffffffffffffffffffff1673ffffffffffffffffffffffffffffffffffffffff1681526020015f820160149054906101000a900463ffffffff1663ffffffff1663ffffffff1681526020015f820160189054906101000a900461ffff1661ffff1661ffff1681526020015f8201601a9054906101000a900461ffff1661ffff1661ffff1681526020015f8201601c9054906101000a900460ff16151515158152505090509392505050565b5f8054906101000a900473ffffffffffffffffffffffffffffffffffffffff1673ffffffffffffffffffffffffffffffffffffffff163373ffffffffffffffffffffffffffffffffffffffff1614612267576040517f08c379a000000000000000000000000000000000000000000000000000000000815260040161225e90612ea0565b60405180910390fd5b5f73ffffffffffffffffffffffffffffffffffffffff168173ffffffffffffffffffffffffffffffffffffffff16036122d5576040517f08c379a00000000000000000000000000000000000000000000000000000000081526004016122cc906139a0565b60405180910390fd5b8073ffffffffffffffffffffffffffffffffffffffff165f8054906101000a900473ffffffffffffffffffffffffffffffffffffffff1673ffffffffffffffffffffffffffffffffffffffff167f8934ce4adea8d9ce0d714d2c22b86790e41b7731c84b926fbbdc1d40ff6533c960405160405180910390a3805f806101000a81548173ffffffffffffffffffffffffffffffffffffffff021916908373ffffffffffffffffffffffffffffffffffffffff16021790555050565b6040518060a001604052805f73ffffffffffffffffffffffffffffffffffffffff1681526020015f63ffffffff1681526020015f61ffff1681526020015f61ffff1681526020015f151581525090565b5f80fd5b5f80fd5b5f73ffffffffffffffffffffffffffffffffffffffff82169050919050565b5f612411826123e8565b9050919050565b61242181612407565b811461242b575f80fd5b50565b5f8135905061243c81612418565b92915050565b5f60208284031215612457576124566123e0565b5b5f6124648482850161242e565b91505092915050565b5f8115159050919050565b6124818161246d565b82525050565b5f60208201905061249a5f830184612478565b92915050565b5f819050919050565b6124b2816124a0565b82525050565b5f81519050919050565b5f82825260208201905092915050565b5f5b838110156124ef5780820151818401526020810190506124d4565b5f8484015250505050565b5f601f19601f8301169050919050565b5f612514826124b8565b61251e81856124c2565b935061252e8185602086016124d2565b612537816124fa565b840191505092915050565b5f6080820190506125555f8301876124a9565b8181036020830152612567818661250a565b9050818103604083015261257b818561250a565b905061258a6060830184612478565b95945050505050565b5f61ffff82169050919050565b6125a981612593565b81146125b3575f80fd5b50565b5f813590506125c4816125a0565b92915050565b5f80604083850312156125e0576125df6123e0565b5b5f6125ed858286016125b6565b92505060206125fe858286016125b6565b9150509250929050565b61261181612593565b82525050565b5f60208201905061262a5f830184612608565b92915050565b6003811061263c575f80fd5b50565b5f8135905061264d81612630565b92915050565b61265c8161246d565b8114612666575f80fd5b50565b5f8135905061267781612653565b92915050565b5f805f8060808587031215612695576126946123e0565b5b5f6126a28782880161242e565b94505060206126b38782880161263f565b93505060406126c487828801612669565b92505060606126d587828801612669565b91505092959194509250565b5f63ffffffff82169050919050565b6126f9816126e1565b8114612703575f80fd5b50565b5f81359050612714816126f0565b92915050565b5f80604083850312156127305761272f6123e0565b5b5f61273d8582860161242e565b925050602061274e85828601612706565b9150509250929050565b5f81519050919050565b5f82825260208201905092915050565b5f819050602082019050919050565b61278a81612407565b82525050565b5f61279b8383612781565b60208301905092915050565b5f602082019050919050565b5f6127bd82612758565b6127c78185612762565b93506127d283612772565b805f5b838110156128025781516127e98882612790565b97506127f4836127a7565b9250506001810190506127d5565b5085935050505092915050565b5f81519050919050565b5f82825260208201905092915050565b5f819050602082019050919050565b61284181612593565b82525050565b5f6128528383612838565b60208301905092915050565b5f602082019050919050565b5f6128748261280f565b61287e8185612819565b935061288983612829565b805f5b838110156128b95781516128a08882612847565b97506128ab8361285e565b92505060018101905061288c565b5085935050505092915050565b5f6060820190508181035f8301526128de81866127b3565b905081810360208301526128f2818561286a565b90508181036040830152612906818461286a565b9050949350505050565b612919816124a0565b8114612923575f80fd5b50565b5f8135905061293481612910565b92915050565b5f80fd5b5f80fd5b5f80fd5b5f8083601f84011261295b5761295a61293a565b5b8235905067ffffffffffffffff8111156129785761297761293e565b5b60208301915083600182028301111561299457612993612942565b5b9250929050565b5f805f805f606086880312156129b4576129b36123e0565b5b5f6129c188828901612926565b955050602086013567ffffffffffffffff8111156129e2576129e16123e4565b5b6129ee88828901612946565b9450945050604086013567ffffffffffffffff811115612a1157612a106123e4565b5b612a1d88828901612946565b92509250509295509295909350565b5f60ff82169050919050565b612a4181612a2c565b8114612a4b575f80fd5b50565b5f81359050612a5c81612a38565b92915050565b5f805f805f805f805f60c08a8c031215612a7f57612a7e6123e0565b5b5f612a8c8c828d01612926565b99505060208a013567ffffffffffffffff811115612aad57612aac6123e4565b5b612ab98c828d01612946565b98509850506040612acc8c828d01612a4e565b96505060608a013567ffffffffffffffff811115612aed57612aec6123e4565b5b612af98c828d01612946565b955095505060808a013567ffffffffffffffff811115612b1c57612b1b6123e4565b5b612b288c828d01612946565b935093505060a0612b3b8c828d0161263f565b9150509295985092959850929598565b5f602082019050612b5e5f8301846124a9565b92915050565b612b6d81612a2c565b82525050565b7f4e487b71000000000000000000000000000000000000000000000000000000005f52602160045260245ffd5b60038110612bb157612bb0612b73565b5b50565b5f819050612bc182612ba0565b919050565b5f612bd082612bb4565b9050919050565b612be081612bc6565b82525050565b5f61010082019050612bfa5f83018b6124a9565b8181036020830152612c0c818a61250a565b9050612c1b6040830189612b64565b8181036060830152612c2d818861250a565b90508181036080830152612c41818761250a565b9050612c5060a0830186612bd7565b612c5d60c0830185612478565b612c6a60e0830184612478565b9998505050505050505050565b612c8081612407565b82525050565b5f602082019050612c995f830184612c77565b92915050565b5f60208284031215612cb457612cb36123e0565b5b5f612cc184828501612926565b91505092915050565b5f612cd4826123e8565b9050919050565b612ce481612cca565b8114612cee575f80fd5b50565b5f81359050612cff81612cdb565b92915050565b5f805f8060808587031215612d1d57612d1c6123e0565b5b5f612d2a8782880161242e565b9450506020612d3b87828801612706565b9350506040612d4c878288016125b6565b9250506060612d5d87828801612cf1565b91505092959194509250565b5f805f60608486031215612d8057612d7f6123e0565b5b5f612d8d8682870161242e565b9350506020612d9e86828701612706565b9250506040612daf868287016125b6565b9150509250925092565b612dc2816126e1565b82525050565b612dd18161246d565b82525050565b60a082015f820151612deb5f850182612781565b506020820151612dfe6020850182612db9565b506040820151612e116040850182612838565b506060820151612e246060850182612838565b506080820151612e376080850182612dc8565b50505050565b5f60a082019050612e505f830184612dd7565b92915050565b7f4f6e6c79206f776e65722063616e2063616c6c207468697300000000000000005f82015250565b5f612e8a6018836124c2565b9150612e9582612e56565b602082019050919050565b5f6020820190508181035f830152612eb781612e7e565b9050919050565b7f43616e6e6f742072656d6f7665206f776e6572000000000000000000000000005f82015250565b5f612ef26013836124c2565b9150612efd82612ebe565b602082019050919050565b5f6020820190508181035f830152612f1f81612ee6565b9050919050565b7f4e6f742061646d696e00000000000000000000000000000000000000000000005f82015250565b5f612f5a6009836124c2565b9150612f6582612f26565b602082019050919050565b5f6020820190508181035f830152612f8781612f4e565b9050919050565b7f4e487b71000000000000000000000000000000000000000000000000000000005f52602260045260245ffd5b5f6002820490506001821680612fd257607f821691505b602082108103612fe557612fe4612f8e565b5b50919050565b7f496e76616c69642074696d6500000000000000000000000000000000000000005f82015250565b5f61301f600c836124c2565b915061302a82612feb565b602082019050919050565b5f6020820190508181035f83015261304c81613013565b9050919050565b7f4e487b71000000000000000000000000000000000000000000000000000000005f52601160045260245ffd5b5f61308a82612593565b915061309583612593565b92508282026130a381612593565b91508082146130b5576130b4613053565b5b5092915050565b5f6130c682612593565b91506130d183612593565b9250828201905061ffff8111156130eb576130ea613053565b5b92915050565b7f4f6e6c792061646d696e2063616e2063616c6c207468697300000000000000005f82015250565b5f6131256018836124c2565b9150613130826130f1565b602082019050919050565b5f6020820190508181035f83015261315281613119565b9050919050565b7f5061727469636970616e74206e6f7420666f756e6400000000000000000000005f82015250565b5f61318d6015836124c2565b915061319882613159565b602082019050919050565b5f6020820190508181035f8301526131ba81613181565b9050919050565b7f496e76616c696420747261696e696e67207479706500000000000000000000005f82015250565b5f6131f56015836124c2565b9150613200826131c1565b602082019050919050565b5f6020820190508181035f830152613222816131e9565b9050919050565b7f416c726561647920636f6d706c657465643b2063616e6e6f74207265766572745f82015250565b5f61325d6020836124c2565b915061326882613229565b602082019050919050565b5f6020820190508181035f83015261328a81613251565b9050919050565b5f6040820190506132a45f830185612bd7565b6132b16020830184612478565b9392505050565b7f4e487b71000000000000000000000000000000000000000000000000000000005f52604160045260245ffd5b7f4e487b71000000000000000000000000000000000000000000000000000000005f52603260045260245ffd5b5f61331c826124a0565b91507fffffffffffffffffffffffffffffffffffffffffffffffffffffffffffffffff820361334e5761334d613053565b5b600182019050919050565b7f416c7265616479207265676973746572656420617320747261696e65720000005f82015250565b5f61338d601d836124c2565b915061339882613359565b602082019050919050565b5f6020820190508181035f8301526133ba81613381565b9050919050565b7f4e616d652063616e6e6f7420626520656d7074790000000000000000000000005f82015250565b5f6133f56014836124c2565b9150613400826133c1565b602082019050919050565b5f6020820190508181035f830152613422816133e9565b9050919050565b7f44697374726963742063616e6e6f7420626520656d70747900000000000000005f82015250565b5f61345d6018836124c2565b915061346882613429565b602082019050919050565b5f6020820190508181035f83015261348a81613451565b9050919050565b5f819050815f5260205f209050919050565b5f6020601f8301049050919050565b5f82821b905092915050565b5f600883026134ed7fffffffffffffffffffffffffffffffffffffffffffffffffffffffffffffffff826134b2565b6134f786836134b2565b95508019841693508086168417925050509392505050565b5f819050919050565b5f61353261352d613528846124a0565b61350f565b6124a0565b9050919050565b5f819050919050565b61354b83613518565b61355f61355782613539565b8484546134be565b825550505050565b5f90565b613573613567565b61357e818484613542565b505050565b5b818110156135a1576135965f8261356b565b600181019050613584565b5050565b601f8211156135e6576135b781613491565b6135c0846134a3565b810160208510156135cf578190505b6135e36135db856134a3565b830182613583565b50505b505050565b5f82821c905092915050565b5f6136065f19846008026135eb565b1980831691505092915050565b5f61361e83836135f7565b9150826002028217905092915050565b613637826124b8565b67ffffffffffffffff8111156136505761364f6132b8565b5b61365a8254612fbb565b6136658282856135a5565b5f60209050601f831160018114613696575f8415613684578287015190505b61368e8582613613565b8655506136f5565b601f1984166136a486613491565b5f5b828110156136cb578489015182556001820191506020850194506020810190506136a6565b868310156136e857848901516136e4601f8916826135f7565b8355505b6001600288020188555050505b505050505050565b828183375f83830152505050565b5f61371683856124c2565b93506137238385846136fd565b61372c836124fa565b840190509392505050565b5f60608201905061374a5f8301886124a9565b818103602083015261375d81868861370b565b9050818103604083015261377281848661370b565b90509695505050505050565b7f416c72656164792072656769737465726564206173207061727469636970616e5f8201527f7400000000000000000000000000000000000000000000000000000000000000602082015250565b5f6137d86021836124c2565b91506137e38261377e565b604082019050919050565b5f6020820190508181035f830152613805816137cc565b9050919050565b7f47656e6465722063616e6e6f7420626520656d707479000000000000000000005f82015250565b5f6138406016836124c2565b915061384b8261380c565b602082019050919050565b5f6020820190508181035f83015261386d81613834565b9050919050565b7f416765206d7573742062652067726561746572207468616e20300000000000005f82015250565b5f6138a8601a836124c2565b91506138b382613874565b602082019050919050565b5f6020820190508181035f8301526138d58161389c565b9050919050565b5f60c0820190506138ef5f83018c6124a9565b8181036020830152613902818a8c61370b565b90506139116040830189612b64565b818103606083015261392481878961370b565b9050818103608083015261393981858761370b565b905061394860a0830184612bd7565b9a9950505050505050505050565b7f5a65726f206164647265737300000000000000000000000000000000000000005f82015250565b5f61398a600c836124c2565b915061399582613956565b602082019050919050565b5f6020820190508181035f8301526139b78161397e565b9050919050565b7f416c72656164792061646d696e000000000000000000000000000000000000005f82015250565b5f6139f2600d836124c2565b91506139fd826139be565b602082019050919050565b5f6020820190508181035f830152613a1f816139e6565b9050919050565b7f5265676973746572206173207061727469636970616e740000000000000000005f82015250565b5f613a5a6017836124c2565b9150613a6582613a26565b602082019050919050565b5f6020820190508181035f830152613a8781613a4e565b9050919050565b7f547261696e6572206e6f7420666f756e640000000000000000000000000000005f82015250565b5f613ac26011836124c2565b9150613acd82613a8e565b602082019050919050565b5f6020820190508181035f830152613aef81613ab6565b9050919050565b7f5061796565206d75737420626520616e2061646d696e000000000000000000005f82015250565b5f613b2a6016836124c2565b9150613b3582613af6565b602082019050919050565b5f6020820190508181035f830152613b5781613b1e565b9050919050565b7f496e636f727265637420626f6f6b696e672066656500000000000000000000005f82015250565b5f613b926015836124c2565b9150613b9d82613b5e565b602082019050919050565b5f6020820190508181035f830152613bbf81613b86565b9050919050565b7f537461727420746f6f206c61746520666f722033302d6d696e20736c6f7400005f82015250565b5f613bfa601e836124c2565b9150613c0582613bc6565b602082019050919050565b5f6020820190508181035f830152613c2781613bee565b9050919050565b7f547261696e657220616c726561647920626f6f6b656420666f722074686973205f8201527f736c6f7400000000000000000000000000000000000000000000000000000000602082015250565b5f613c886024836124c2565b9150613c9382613c2e565b604082019050919050565b5f6020820190508181035f830152613cb581613c7c565b9050919050565b5f81905092915050565b50565b5f613cd45f83613cbc565b9150613cdf82613cc6565b5f82019050919050565b5f613cf382613cc9565b9150819050919050565b7f466565207472616e73666572206661696c6564000000000000000000000000005f82015250565b5f613d316013836124c2565b9150613d3c82613cfd565b602082019050919050565b5f6020820190508181035f830152613d5e81613d25565b9050919050565b5f613d7f613d7a613d75846123e8565b61350f565b6123e8565b9050919050565b5f613d9082613d65565b9050919050565b5f613da182613d86565b9050919050565b613db181613d97565b82525050565b5f608082019050613dca5f830187612608565b613dd76020830186612608565b613de46040830185613da8565b613df160608301846124a9565b9594505050505056fea2646970667358221220f3d7e868a119ce0b59eac2e64cf104829456ea2690faf3da39c8a51bf97bd7b764736f6c63430008140033",
  "immutableReferences": {},
  "source": "// SPDX-License-Identifier: GPL-3.0\n\npragma solidity >=0.7.0 < 0.9.0;\n\n\n/**\n * @title Disaster Response Training Management\n*/\n\ncontract DRTM {\n    \n    // roles\n    address public ownerAddr;\n    mapping(address => bool) public isAdmin;\n\n    modifier onlyOwner() {\n        require(msg.sender == ownerAddr, \"Only owner can call this\");\n        _;\n    }\n\n    modifier onlyAdmin() {\n        require(isAdmin[msg.sender], \"Only admin can call this\");\n        _;\n    }\n\n    enum TrainingType {\n        FirstAid,\n        ShelterRebuild,\n        FoodSafety\n    }\n\n    struct Part {\n        uint256 id;\n        string name;\n        uint8 age;\n        string gender;\n        string district;\n        TrainingType trainingType;\n        bool hasCompletedTraining;\n        bool exists;\n    }\n\n    struct Trainer {\n        uint256 id;\n        string name;\n        string district;\n        bool exists;\n    }\n\n    // Address-indexed registries\n    mapping(address => Part) public parts;\n    mapping(address => Trainer) public trainers;\n\n    // bookings\n    uint256 public bookingFee = 0.000000000000001 ether; // Owner can change preset booking fee.\n\n    struct Bkg {\n        address partAddr;\n        uint32 dayKey;          // floor(utcTimestamp / 86400)\n        uint16 startMin;        // minutes since midnight (for example, 9:00 AM -> 540)\n        uint16 endMin;          // startMin + 30\n        bool exists;\n    }\n\n    // trainer => dayKey => startMin => Booking\n    mapping(address => mapping(uint32 => mapping(uint16 => Bkg))) private bkgs;\n\n    // For iterating a trainer's schedule: store the list of slot keys for that day\n    mapping(address => mapping(uint32 => uint16[])) private trainerDaySlots;\n\n    // events\n    event OwnerTransferred(address indexed oldOwner, address indexed newOwner);\n    event AdminAdded(address indexed admin);\n    event AdminRemoved(address indexed admin);\n\n    event PartRegistered(\n        address indexed addr,\n        uint256 id,\n        string name,\n        uint8 age,\n        string gender,\n        string district,\n        TrainingType trainingType\n    );\n\n    event TrainerRegistered(\n        address indexed addr,\n        uint256 id,\n        string name,\n        string district\n    );\n\n    event PartUpdated(\n        address indexed partAddr,\n        TrainingType trainingType,\n        bool hasCompletedTraining\n    );\n\n    event BookingFeeChanged(uint256 newFee);\n\n    event SlotBooked(\n        address indexed partAddr,\n        address indexed trainerAddr,\n        uint32 indexed dayKey,\n        uint16 startMin,\n        uint16 endMin,\n        address adminPayee,\n        uint256 fee\n    );\n\n    // constructor\n    constructor() {\n        ownerAddr = msg.sender;\n        isAdmin[msg.sender] = true;\n        emit AdminAdded(msg.sender);\n    }\n\n    // Admin methods\n    function transferOwnership(address newOwner) external onlyOwner {\n        require(newOwner != address(0), \"Zero address\");\n        emit OwnerTransferred(ownerAddr, newOwner);\n        ownerAddr = newOwner;\n    }\n\n    function addAdmin(address addr) external onlyOwner {\n        require(addr != address(0), \"Zero address\");\n        require(!isAdmin[addr], \"Already admin\");\n        isAdmin[addr] = true;\n        emit AdminAdded(addr);\n    }\n\n    function removeAdmin(address addr) external onlyOwner {\n        require(addr != ownerAddr, \"Cannot remove owner\");\n        require(isAdmin[addr], \"Not admin\");\n        isAdmin[addr] = false;\n        emit AdminRemoved(addr);\n    }\n\n    function setBookingFee(uint256 newFee) external onlyOwner {\n        bookingFee = newFee;\n        emit BookingFeeChanged(newFee);\n    }\n    \n    // participant registration\n    function registerPart(\n        uint256 _id,\n        string calldata _name,\n        uint8 _age,\n        string calldata _gender,\n        string calldata _district,\n        TrainingType _trainingtype\n    ) external {\n        require(!parts[msg.sender].exists, \"Already registered as participant\");\n        require(bytes(_name).length > 0, \"Name cannot be empty\");\n        require(bytes(_gender).length > 0, \"Gender cannot be empty\");\n        require(bytes(_district).length > 0, \"District cannot be empty\");\n        require(_age > 0, \"Age must be greater than 0\");\n        require(uint8(_trainingtype) <= uint8(TrainingType.FoodSafety), \"Invalid training type\");\n\n        parts[msg.sender] = Part({\n            id: _id,\n            name: _name,\n            age: _age,\n            gender: _gender,\n            district: _district,\n            trainingType: _trainingtype,\n            hasCompletedTraining: false,\n            exists: true\n        });\n\n        emit PartRegistered(\n            msg.sender,\n            _id,\n            _name,\n            _age,\n            _gender,\n            _district,\n            _trainingtype\n        );\n    }\n\n    function registerTrainer(\n        uint256 _id,\n        string calldata _name,\n        string calldata _district\n    ) external {\n        require(!trainers[msg.sender].exists, \"Already registered as trainer\");\n        require(bytes(_name).length > 0, \"Name cannot be empty\");\n        require(bytes(_district).length > 0, \"District cannot be empty\");\n\n        trainers[msg.sender] = Trainer({\n            id: _id,\n            name: _name,\n            district: _district,\n            exists: true\n        });\n\n        emit TrainerRegistered(msg.sender, _id, _name, _district);\n    }\n\n    // participant updates [Admin only]\n    function adminUpdatePart(\n        address partAddr,\n        TrainingType newType,\n        bool updateType,\n        bool setCompletedToTrue\n    ) external onlyAdmin {\n        Part storage p = parts[partAddr];\n        require(p.exists, \"Participant not found\");\n\n        if (updateType) {\n            require(uint8(newType) <= uint8(TrainingType.FoodSafety), \"Invalid training type\");\n            p.trainingType = newType;\n        }\n\n        if (setCompletedToTrue) {\n            require(!p.hasCompletedTraining, \"Already completed; cannot revert\");\n            p.hasCompletedTraining = true;\n        }\n\n        emit PartUpdated(partAddr, p.trainingType, p.hasCompletedTraining);\n    }\n\n    // booking logic\n    function bookSlot(\n        address trainerAddr,\n        uint32 dayKey,\n        uint16 startMin,\n        address payable adminPayee\n    ) external payable {\n        require(parts[msg.sender].exists, \"Register as participant\");\n        require(trainers[trainerAddr].exists, \"Trainer not found\");\n        require(isAdmin[adminPayee], \"Payee must be an admin\");\n        require(msg.value == bookingFee, \"Incorrect booking fee\");\n\n        // Enforce slot bounds & fixed 30-minute duration\n        require(startMin <= 1410, \"Start too late for 30-min slot\"); // 1410 + 30 = 1440\n        uint16 endMin = startMin + 30;\n\n        // Prevent double-booking of the same discrete 30-min slot\n        Bkg storage existing = bkgs[trainerAddr][dayKey][startMin];\n        require(!existing.exists, \"Trainer already booked for this slot\");\n\n        // Record\n        bkgs[trainerAddr][dayKey][startMin] = Bkg({\n            partAddr: msg.sender,\n            dayKey: dayKey,\n            startMin: startMin,\n            endMin: endMin,\n            exists: true\n        });\n        trainerDaySlots[trainerAddr][dayKey].push(startMin);\n\n        // Payout fee to chosen admin\n        (bool sent, ) = adminPayee.call{value: msg.value}(\"\");\n        require(sent, \"Fee transfer failed\");\n\n        emit SlotBooked(\n            msg.sender,\n            trainerAddr,\n            dayKey,\n            startMin,\n            endMin,\n            adminPayee,\n            msg.value\n        );\n    }\n\n    // view schedule\n    function getTrainerSchedByDay(\n        address trainerAddr,\n        uint32 dayKey\n    )\n        external\n        view\n        returns (\n            address[] memory partsOut,\n            uint16[] memory startMinsOut,\n            uint16[] memory endMinsOut\n        )\n    {\n        uint16[] storage keys = trainerDaySlots[trainerAddr][dayKey];\n        uint256 n = keys.length;\n\n        partsOut = new address[](n);\n        startMinsOut = new uint16[](n);\n        endMinsOut = new uint16[](n);\n\n        for (uint256 i = 0; i < n; i++) {\n            uint16 start = keys[i];\n            Bkg storage b = bkgs[trainerAddr][dayKey][start];\n            partsOut[i] = b.partAddr;\n            startMinsOut[i] = b.startMin;\n            endMinsOut[i] = b.endMin;\n        }\n    }\n\n    function getSlot(\n        address trainerAddr,\n        uint32 dayKey,\n        uint16 startMin\n    ) external view returns (Bkg memory) {\n        return bkgs[trainerAddr][dayKey][startMin];\n    }\n    \n    // utilities\n    function hhmmToMins(uint16 hour24, uint16 min) external pure returns (uint16) {\n        require(hour24 < 24 && min < 60, \"Invalid time\");\n        return uint16(hour24 * 60 + min);\n    }\n}",
  "sourcePath": "/home/xordan/Desktop/drmt_dapp/contracts/drtm.sol",
  "compiler": {
    "name": "solc",
    "version": "0.8.20+commit.a1b79de6.Emscripten.clang"
  },
  "schemaVersion": "3.4.16",
  "updatedAt": "2025-08-16T15:53:58.880Z",
  "devdoc": {
    "kind": "dev",
    "methods": {},
    "title": "Disaster Response Training Management",
    "version": 1
  },
  "userdoc": {
    "kind": "user",
    "methods": {},
    "version": 1
  }
}