{
  "contractName": "DRTM",
  "abi": [
    {
      "inputs": [],
      "stateMutability": "nonpayable",
      "type": "constructor"
    },
    {
      "anonymous": false,
      "inputs": [
        {
          "indexed": true,
          "internalType": "address",
          "name": "admin",
          "type": "address"
        }
      ],
      "name": "AdminAdded",
      "type": "event"
    },
    {
      "anonymous": false,
      "inputs": [
        {
          "indexed": true,
          "internalType": "address",
          "name": "admin",
          "type": "address"
        }
      ],
      "name": "AdminRemoved",
      "type": "event"
    },
    {
      "anonymous": false,
      "inputs": [
        {
          "indexed": false,
          "internalType": "uint256",
          "name": "newFee",
          "type": "uint256"
        }
      ],
      "name": "BookingFeeChanged",
      "type": "event"
    },
    {
      "anonymous": false,
      "inputs": [
        {
          "indexed": true,
          "internalType": "address",
          "name": "oldOwner",
          "type": "address"
        },
        {
          "indexed": true,
          "internalType": "address",
          "name": "newOwner",
          "type": "address"
        }
      ],
      "name": "OwnerTransferred",
      "type": "event"
    },
    {
      "anonymous": false,
      "inputs": [
        {
          "indexed": true,
          "internalType": "address",
          "name": "addr",
          "type": "address"
        },
        {
          "indexed": false,
          "internalType": "uint256",
          "name": "id",
          "type": "uint256"
        },
        {
          "indexed": false,
          "internalType": "string",
          "name": "name",
          "type": "string"
        },
        {
          "indexed": false,
          "internalType": "uint8",
          "name": "age",
          "type": "uint8"
        },
        {
          "indexed": false,
          "internalType": "string",
          "name": "gender",
          "type": "string"
        },
        {
          "indexed": false,
          "internalType": "string",
          "name": "district",
          "type": "string"
        },
        {
          "indexed": false,
          "internalType": "enum DRTM.TrainingType",
          "name": "trainingType",
          "type": "uint8"
        }
      ],
      "name": "PartRegistered",
      "type": "event"
    },
    {
      "anonymous": false,
      "inputs": [
        {
          "indexed": true,
          "internalType": "address",
          "name": "partAddr",
          "type": "address"
        },
        {
          "indexed": false,
          "internalType": "enum DRTM.TrainingType",
          "name": "trainingType",
          "type": "uint8"
        },
        {
          "indexed": false,
          "internalType": "bool",
          "name": "hasCompletedTraining",
          "type": "bool"
        }
      ],
      "name": "PartUpdated",
      "type": "event"
    },
    {
      "anonymous": false,
      "inputs": [
        {
          "indexed": true,
          "internalType": "address",
          "name": "partAddr",
          "type": "address"
        },
        {
          "indexed": true,
          "internalType": "address",
          "name": "trainerAddr",
          "type": "address"
        },
        {
          "indexed": true,
          "internalType": "uint32",
          "name": "dayKey",
          "type": "uint32"
        },
        {
          "indexed": false,
          "internalType": "uint16",
          "name": "startMin",
          "type": "uint16"
        },
        {
          "indexed": false,
          "internalType": "uint16",
          "name": "endMin",
          "type": "uint16"
        },
        {
          "indexed": false,
          "internalType": "address",
          "name": "adminPayee",
          "type": "address"
        },
        {
          "indexed": false,
          "internalType": "uint256",
          "name": "fee",
          "type": "uint256"
        }
      ],
      "name": "SlotBooked",
      "type": "event"
    },
    {
      "anonymous": false,
      "inputs": [
        {
          "indexed": true,
          "internalType": "address",
          "name": "addr",
          "type": "address"
        },
        {
          "indexed": false,
          "internalType": "uint256",
          "name": "id",
          "type": "uint256"
        },
        {
          "indexed": false,
          "internalType": "string",
          "name": "name",
          "type": "string"
        },
        {
          "indexed": false,
          "internalType": "string",
          "name": "district",
          "type": "string"
        }
      ],
      "name": "TrainerRegistered",
      "type": "event"
    },
    {
      "inputs": [],
      "name": "bookingFee",
      "outputs": [
        {
          "internalType": "uint256",
          "name": "",
          "type": "uint256"
        }
      ],
      "stateMutability": "view",
      "type": "function",
      "constant": true
    },
    {
      "inputs": [
        {
          "internalType": "address",
          "name": "",
          "type": "address"
        }
      ],
      "name": "isAdmin",
      "outputs": [
        {
          "internalType": "bool",
          "name": "",
          "type": "bool"
        }
      ],
      "stateMutability": "view",
      "type": "function",
      "constant": true
    },
    {
      "inputs": [],
      "name": "ownerAddr",
      "outputs": [
        {
          "internalType": "address",
          "name": "",
          "type": "address"
        }
      ],
      "stateMutability": "view",
      "type": "function",
      "constant": true
    },
    {
      "inputs": [
        {
          "internalType": "address",
          "name": "",
          "type": "address"
        }
      ],
      "name": "parts",
      "outputs": [
        {
          "internalType": "uint256",
          "name": "id",
          "type": "uint256"
        },
        {
          "internalType": "string",
          "name": "name",
          "type": "string"
        },
        {
          "internalType": "uint8",
          "name": "age",
          "type": "uint8"
        },
        {
          "internalType": "string",
          "name": "gender",
          "type": "string"
        },
        {
          "internalType": "string",
          "name": "district",
          "type": "string"
        },
        {
          "internalType": "enum DRTM.TrainingType",
          "name": "trainingType",
          "type": "uint8"
        },
        {
          "internalType": "bool",
          "name": "hasCompletedTraining",
          "type": "bool"
        },
        {
          "internalType": "bool",
          "name": "exists",
          "type": "bool"
        }
      ],
      "stateMutability": "view",
      "type": "function",
      "constant": true
    },
    {
      "inputs": [
        {
          "internalType": "address",
          "name": "",
          "type": "address"
        }
      ],
      "name": "trainers",
      "outputs": [
        {
          "internalType": "uint256",
          "name": "id",
          "type": "uint256"
        },
        {
          "internalType": "string",
          "name": "name",
          "type": "string"
        },
        {
          "internalType": "string",
          "name": "district",
          "type": "string"
        },
        {
          "internalType": "bool",
          "name": "exists",
          "type": "bool"
        }
      ],
      "stateMutability": "view",
      "type": "function",
      "constant": true
    },
    {
      "inputs": [
        {
          "internalType": "address",
          "name": "newOwner",
          "type": "address"
        }
      ],
      "name": "transferOwnership",
      "outputs": [],
      "stateMutability": "nonpayable",
      "type": "function"
    },
    {
      "inputs": [
        {
          "internalType": "address",
          "name": "addr",
          "type": "address"
        }
      ],
      "name": "addAdmin",
      "outputs": [],
      "stateMutability": "nonpayable",
      "type": "function"
    },
    {
      "inputs": [
        {
          "internalType": "address",
          "name": "addr",
          "type": "address"
        }
      ],
      "name": "removeAdmin",
      "outputs": [],
      "stateMutability": "nonpayable",
      "type": "function"
    },
    {
      "inputs": [
        {
          "internalType": "uint256",
          "name": "newFee",
          "type": "uint256"
        }
      ],
      "name": "setBookingFee",
      "outputs": [],
      "stateMutability": "nonpayable",
      "type": "function"
    },
    {
      "inputs": [
        {
          "internalType": "uint256",
          "name": "_id",
          "type": "uint256"
        },
        {
          "internalType": "string",
          "name": "_name",
          "type": "string"
        },
        {
          "internalType": "uint8",
          "name": "_age",
          "type": "uint8"
        },
        {
          "internalType": "string",
          "name": "_gender",
          "type": "string"
        },
        {
          "internalType": "string",
          "name": "_district",
          "type": "string"
        },
        {
          "internalType": "enum DRTM.TrainingType",
          "name": "_trainingtype",
          "type": "uint8"
        }
      ],
      "name": "registerPart",
      "outputs": [],
      "stateMutability": "nonpayable",
      "type": "function"
    },
    {
      "inputs": [
        {
          "internalType": "uint256",
          "name": "_id",
          "type": "uint256"
        },
        {
          "internalType": "string",
          "name": "_name",
          "type": "string"
        },
        {
          "internalType": "string",
          "name": "_district",
          "type": "string"
        }
      ],
      "name": "registerTrainer",
      "outputs": [],
      "stateMutability": "nonpayable",
      "type": "function"
    },
    {
      "inputs": [
        {
          "internalType": "address",
          "name": "partAddr",
          "type": "address"
        },
        {
          "internalType": "enum DRTM.TrainingType",
          "name": "newType",
          "type": "uint8"
        },
        {
          "internalType": "bool",
          "name": "updateType",
          "type": "bool"
        },
        {
          "internalType": "bool",
          "name": "setCompletedToTrue",
          "type": "bool"
        }
      ],
      "name": "adminUpdatePart",
      "outputs": [],
      "stateMutability": "nonpayable",
      "type": "function"
    },
    {
      "inputs": [
        {
          "internalType": "address",
          "name": "trainerAddr",
          "type": "address"
        },
        {
          "internalType": "uint32",
          "name": "dayKey",
          "type": "uint32"
        },
        {
          "internalType": "uint16",
          "name": "startMin",
          "type": "uint16"
        },
        {
          "internalType": "address payable",
          "name": "adminPayee",
          "type": "address"
        }
      ],
      "name": "bookSlot",
      "outputs": [],
      "stateMutability": "payable",
      "type": "function",
      "payable": true
    },
    {
      "inputs": [
        {
          "internalType": "address",
          "name": "trainerAddr",
          "type": "address"
        },
        {
          "internalType": "uint32",
          "name": "dayKey",
          "type": "uint32"
        }
      ],
      "name": "getTrainerSchedByDay",
      "outputs": [
        {
          "internalType": "address[]",
          "name": "partsOut",
          "type": "address[]"
        },
        {
          "internalType": "uint16[]",
          "name": "startMinsOut",
          "type": "uint16[]"
        },
        {
          "internalType": "uint16[]",
          "name": "endMinsOut",
          "type": "uint16[]"
        }
      ],
      "stateMutability": "view",
      "type": "function",
      "constant": true
    },
    {
      "inputs": [
        {
          "internalType": "address",
          "name": "trainerAddr",
          "type": "address"
        },
        {
          "internalType": "uint32",
          "name": "dayKey",
          "type": "uint32"
        },
        {
          "internalType": "uint16",
          "name": "startMin",
          "type": "uint16"
        }
      ],
      "name": "getSlot",
      "outputs": [
        {
          "components": [
            {
              "internalType": "address",
              "name": "partAddr",
              "type": "address"
            },
            {
              "internalType": "uint32",
              "name": "dayKey",
              "type": "uint32"
            },
            {
              "internalType": "uint16",
              "name": "startMin",
              "type": "uint16"
            },
            {
              "internalType": "uint16",
              "name": "endMin",
              "type": "uint16"
            },
            {
              "internalType": "bool",
              "name": "exists",
              "type": "bool"
            }
          ],
          "internalType": "struct DRTM.Bkg",
          "name": "",
          "type": "tuple"
        }
      ],
      "stateMutability": "view",
      "type": "function",
      "constant": true
    },
    {
      "inputs": [
        {
          "internalType": "uint16",
          "name": "hour24",
          "type": "uint16"
        },
        {
          "internalType": "uint16",
          "name": "min",
          "type": "uint16"
        }
      ],
      "name": "hhmmToMins",
      "outputs": [
        {
          "internalType": "uint16",
          "name": "",
          "type": "uint16"
        }
      ],
      "stateMutability": "pure",
      "type": "function",
      "constant": true
    }
  ],
  "bytecode": "0x60806040526103e8600455348015610015575f80fd5b505f80546001600160a01b031916339081178255808252600160208190526040808420805460ff19169092179091555190917f44d6d25963f097ad14f29f06854a01f575648a1ef82f30e562ccd3889717e33991a2612342806100775f395ff3fe6080604052600436106100ef575f3560e01c80636c788a0d11610087578063b0fe2eab11610057578063b0fe2eab146102ee578063bf8823741461030d578063c8a9995814610320578063f2fde38b14610443575f80fd5b80636c788a0d146102435780637048027514610266578063778b8a15146102855780639c675eaa146102b8575f80fd5b806344cb674d116100c257806344cb674d146101b85780634f2a75f1146101d757806360d60238146102055780636850004414610224575f80fd5b80631785f53c146100f357806324d7806c146101145780632cd92f97146101575780633d08688614610186575b5f80fd5b3480156100fe575f80fd5b5061011261010d366004611afd565b610462565b005b34801561011f575f80fd5b5061014261012e366004611afd565b60016020525f908152604090205460ff1681565b60405190151581526020015b60405180910390f35b348015610162575f80fd5b50610176610171366004611afd565b610582565b60405161014e9493929190611b5b565b348015610191575f80fd5b506101a56101a0366004611baf565b6106b9565b60405161ffff909116815260200161014e565b3480156101c3575f80fd5b506101126101d2366004611bfd565b61072a565b3480156101e2575f80fd5b506101f66101f1366004611c63565b610947565b60405161014e93929190611cca565b348015610210575f80fd5b5061011261021f366004611d83565b610b7e565b34801561022f575f80fd5b5061011261023e366004611df7565b610d86565b34801561024e575f80fd5b5061025860045481565b60405190815260200161014e565b348015610271575f80fd5b50610112610280366004611afd565b611185565b348015610290575f80fd5b506102a461029f366004611afd565b611299565b60405161014e989796959493929190611eef565b3480156102c3575f80fd5b505f546102d6906001600160a01b031681565b6040516001600160a01b03909116815260200161014e565b3480156102f9575f80fd5b50610112610308366004611f64565b61147e565b61011261031b366004611f7b565b6114e2565b34801561032b575f80fd5b506103e961033a366004611fd0565b6040805160a0810182525f80825260208201819052918101829052606081018290526080810191909152506001600160a01b039283165f90815260056020908152604080832063ffffffff9586168452825280832061ffff9485168452825291829020825160a08101845290549586168152600160a01b860490941690840152600160c01b8404821690830152600160d01b8304166060820152600160e01b90910460ff161515608082015290565b60405161014e919081516001600160a01b0316815260208083015163ffffffff169082015260408083015161ffff908116918301919091526060808401519091169082015260809182015115159181019190915260a00190565b34801561044e575f80fd5b5061011261045d366004611afd565b611a1f565b5f546001600160a01b031633146104945760405162461bcd60e51b815260040161048b90612012565b60405180910390fd5b5f546001600160a01b03908116908216036104e75760405162461bcd60e51b815260206004820152601360248201527221b0b73737ba103932b6b7bb329037bbb732b960691b604482015260640161048b565b6001600160a01b0381165f9081526001602052604090205460ff1661053a5760405162461bcd60e51b81526020600482015260096024820152682737ba1030b236b4b760b91b604482015260640161048b565b6001600160a01b0381165f81815260016020526040808220805460ff19169055517fa3b62bc36326052d97ea62d63c3d60308ed4c3ea8ac079dd8499f1e9c4f80c0f9190a250565b60036020525f9081526040902080546001820180549192916105a390612049565b80601f01602080910402602001604051908101604052809291908181526020018280546105cf90612049565b801561061a5780601f106105f15761010080835404028352916020019161061a565b820191905f5260205f20905b8154815290600101906020018083116105fd57829003601f168201915b50505050509080600201805461062f90612049565b80601f016020809104026020016040519081016040528092919081815260200182805461065b90612049565b80156106a65780601f1061067d576101008083540402835291602001916106a6565b820191905f5260205f20905b81548152906001019060200180831161068957829003601f168201915b5050506003909301549192505060ff1684565b5f60188361ffff161080156106d25750603c8261ffff16105b61070d5760405162461bcd60e51b815260206004820152600c60248201526b496e76616c69642074696d6560a01b604482015260640161048b565b8161071984603c612095565b61072391906120bb565b9392505050565b335f9081526001602052604090205460ff166107885760405162461bcd60e51b815260206004820152601860248201527f4f6e6c792061646d696e2063616e2063616c6c20746869730000000000000000604482015260640161048b565b6001600160a01b0384165f908152600260205260409020600581015462010000900460ff166107f15760405162461bcd60e51b815260206004820152601560248201527414185c9d1a58da5c185b9d081b9bdd08199bdd5b99605a1b604482015260640161048b565b821561087a576002848181111561080a5761080a611ebb565b60ff1611156108535760405162461bcd60e51b8152602060048201526015602482015274496e76616c696420747261696e696e67207479706560581b604482015260640161048b565b60058101805485919060ff1916600183600281111561087457610874611ebb565b02179055505b81156108ec576005810154610100900460ff16156108da5760405162461bcd60e51b815260206004820181905260248201527f416c726561647920636f6d706c657465643b2063616e6e6f7420726576657274604482015260640161048b565b60058101805461ff0019166101001790555b60058101546040516001600160a01b038716917f9660853cac093824225a6a8d58832744b55b8547dc1757d50ccbbf5579bc523c916109389160ff8082169261010090920416906120dd565b60405180910390a25050505050565b6001600160a01b0382165f90815260066020908152604080832063ffffffff851684529091529020805460609182918291908067ffffffffffffffff811115610992576109926120fa565b6040519080825280602002602001820160405280156109bb578160200160208202803683370190505b5094508067ffffffffffffffff8111156109d7576109d76120fa565b604051908082528060200260200182016040528015610a00578160200160208202803683370190505b5093508067ffffffffffffffff811115610a1c57610a1c6120fa565b604051908082528060200260200182016040528015610a45578160200160208202803683370190505b5092505f5b81811015610b74575f838281548110610a6557610a6561210e565b5f91825260208083206010830401546001600160a01b038d8116855260058352604080862063ffffffff8f1687528452808620600f9095166002026101000a90920461ffff168086529390925290922080548a5192945090921690899085908110610ad257610ad261210e565b60200260200101906001600160a01b031690816001600160a01b031681525050805f0160189054906101000a900461ffff16878481518110610b1657610b1661210e565b61ffff928316602091820292909201015281548751600160d01b90910490911690879085908110610b4957610b4961210e565b602002602001019061ffff16908161ffff168152505050508080610b6c90612122565b915050610a4a565b5050509250925092565b335f908152600360208190526040909120015460ff1615610be15760405162461bcd60e51b815260206004820152601d60248201527f416c7265616479207265676973746572656420617320747261696e6572000000604482015260640161048b565b82610c255760405162461bcd60e51b81526020600482015260146024820152734e616d652063616e6e6f7420626520656d70747960601b604482015260640161048b565b80610c6d5760405162461bcd60e51b815260206004820152601860248201527744697374726963742063616e6e6f7420626520656d70747960401b604482015260640161048b565b604051806080016040528086815260200185858080601f0160208091040260200160405190810160405280939291908181526020018383808284375f92019190915250505090825250604080516020601f8601819004810282018101909252848152918101919085908590819084018382808284375f920182905250938552505060016020938401819052338352600384526040909220845181559284015191830191610d1b915082612188565b5060408201516002820190610d309082612188565b50606091909101516003909101805460ff191691151591909117905560405133907f648099362da5db955e1423050fbaef1b701ef4c97df78fe7822098454fc05e1890610938908890889088908890889061226c565b335f9081526002602052604090206005015462010000900460ff1615610df85760405162461bcd60e51b815260206004820152602160248201527f416c72656164792072656769737465726564206173207061727469636970616e6044820152601d60fa1b606482015260840161048b565b86610e3c5760405162461bcd60e51b81526020600482015260146024820152734e616d652063616e6e6f7420626520656d70747960601b604482015260640161048b565b83610e825760405162461bcd60e51b815260206004820152601660248201527547656e6465722063616e6e6f7420626520656d70747960501b604482015260640161048b565b81610eca5760405162461bcd60e51b815260206004820152601860248201527744697374726963742063616e6e6f7420626520656d70747960401b604482015260640161048b565b5f8660ff1611610f1c5760405162461bcd60e51b815260206004820152601a60248201527f416765206d7573742062652067726561746572207468616e2030000000000000604482015260640161048b565b60028181811115610f2f57610f2f611ebb565b60ff161115610f785760405162461bcd60e51b8152602060048201526015602482015274496e76616c696420747261696e696e67207479706560581b604482015260640161048b565b6040518061010001604052808a815260200189898080601f0160208091040260200160405190810160405280939291908181526020018383808284375f9201919091525050509082525060ff881660208083019190915260408051601f890183900483028101830182528881529201919088908890819084018382808284375f92019190915250505090825250604080516020601f8701819004810282018101909252858152918101919086908690819084018382808284375f9201919091525050509082525060200182600281111561105457611054611ebb565b81525f60208083018290526001604093840181905233835260028252929091208351815590830151909182019061108b9082612188565b50604082015160028201805460ff191660ff909216919091179055606082015160038201906110ba9082612188565b50608082015160048201906110cf9082612188565b5060a082015160058201805460ff191660018360028111156110f3576110f3611ebb565b021790555060c08201516005909101805460e0909301511515620100000262ff000019921515610100029290921662ffff00199093169290921717905560405133907fb33ae30a78a5cecad01b19b14a26d52428f319a41005aefb585eaef8e5aa4bac90611172908c908c908c908c908c908c908c908c908c906122a4565b60405180910390a2505050505050505050565b5f546001600160a01b031633146111ae5760405162461bcd60e51b815260040161048b90612012565b6001600160a01b0381166111f35760405162461bcd60e51b815260206004820152600c60248201526b5a65726f206164647265737360a01b604482015260640161048b565b6001600160a01b0381165f9081526001602052604090205460ff161561124b5760405162461bcd60e51b815260206004820152600d60248201526c20b63932b0b23c9030b236b4b760991b604482015260640161048b565b6001600160a01b0381165f818152600160208190526040808320805460ff1916909217909155517f44d6d25963f097ad14f29f06854a01f575648a1ef82f30e562ccd3889717e3399190a250565b60026020525f9081526040902080546001820180549192916112ba90612049565b80601f01602080910402602001604051908101604052809291908181526020018280546112e690612049565b80156113315780601f1061130857610100808354040283529160200191611331565b820191905f5260205f20905b81548152906001019060200180831161131457829003601f168201915b5050506002840154600385018054949560ff90921694919350915061135590612049565b80601f016020809104026020016040519081016040528092919081815260200182805461138190612049565b80156113cc5780601f106113a3576101008083540402835291602001916113cc565b820191905f5260205f20905b8154815290600101906020018083116113af57829003601f168201915b5050505050908060040180546113e190612049565b80601f016020809104026020016040519081016040528092919081815260200182805461140d90612049565b80156114585780601f1061142f57610100808354040283529160200191611458565b820191905f5260205f20905b81548152906001019060200180831161143b57829003601f168201915b5050506005909301549192505060ff808216916101008104821691620100009091041688565b5f546001600160a01b031633146114a75760405162461bcd60e51b815260040161048b90612012565b60048190556040518181527f964147a5344d5b924630bc2d7f18c7bdbf9d8f5ed05da7068d07b1609ebfc8be9060200160405180910390a150565b335f9081526002602052604090206005015462010000900460ff166115495760405162461bcd60e51b815260206004820152601760248201527f5265676973746572206173207061727469636970616e74000000000000000000604482015260640161048b565b6001600160a01b0384165f908152600360208190526040909120015460ff166115a85760405162461bcd60e51b8152602060048201526011602482015270151c985a5b995c881b9bdd08199bdd5b99607a1b604482015260640161048b565b6001600160a01b0381165f9081526001602052604090205460ff166116085760405162461bcd60e51b81526020600482015260166024820152752830bcb2b29036bab9ba1031329030b71030b236b4b760511b604482015260640161048b565b60045434146116515760405162461bcd60e51b8152602060048201526015602482015274496e636f727265637420626f6f6b696e672066656560581b604482015260640161048b565b6105828261ffff1611156116a75760405162461bcd60e51b815260206004820152601e60248201527f537461727420746f6f206c61746520666f722033302d6d696e20736c6f740000604482015260640161048b565b5f6116b383601e6120bb565b6001600160a01b0386165f90815260056020908152604080832063ffffffff89168452825280832061ffff881684529091529020805491925090600160e01b900460ff16156117505760405162461bcd60e51b8152602060048201526024808201527f547261696e657220616c726561647920626f6f6b656420666f722074686973206044820152631cdb1bdd60e21b606482015260840161048b565b6040518060a00160405280336001600160a01b031681526020018663ffffffff1681526020018561ffff1681526020018361ffff1681526020016001151581525060055f886001600160a01b03166001600160a01b031681526020019081526020015f205f8763ffffffff1663ffffffff1681526020019081526020015f205f8661ffff1661ffff1681526020019081526020015f205f820151815f015f6101000a8154816001600160a01b0302191690836001600160a01b031602179055506020820151815f0160146101000a81548163ffffffff021916908363ffffffff1602179055506040820151815f0160186101000a81548161ffff021916908361ffff1602179055506060820151815f01601a6101000a81548161ffff021916908361ffff1602179055506080820151815f01601c6101000a81548160ff02191690831515021790555090505060065f876001600160a01b03166001600160a01b031681526020019081526020015f205f8663ffffffff1663ffffffff1681526020019081526020015f2084908060018154018082558091505060019003905f5260205f2090601091828204019190066002029091909190916101000a81548161ffff021916908361ffff1602179055505f836001600160a01b0316346040515f6040518083038185875af1925050503d805f8114611969576040519150601f19603f3d011682016040523d82523d5f602084013e61196e565b606091505b50509050806119b55760405162461bcd60e51b8152602060048201526013602482015272119959481d1c985b9cd9995c8819985a5b1959606a1b604482015260640161048b565b6040805161ffff8781168252851660208201526001600160a01b0386811682840152346060830152915163ffffffff8916928a169133917f168ea10892838083aa663dc035c7263e2f21c5d7df9ca4f5879e4798136a154d9181900360800190a450505050505050565b5f546001600160a01b03163314611a485760405162461bcd60e51b815260040161048b90612012565b6001600160a01b038116611a8d5760405162461bcd60e51b815260206004820152600c60248201526b5a65726f206164647265737360a01b604482015260640161048b565b5f80546040516001600160a01b03808516939216917f8934ce4adea8d9ce0d714d2c22b86790e41b7731c84b926fbbdc1d40ff6533c991a35f80546001600160a01b0319166001600160a01b0392909216919091179055565b6001600160a01b0381168114611afa575f80fd5b50565b5f60208284031215611b0d575f80fd5b813561072381611ae6565b5f81518084525f5b81811015611b3c57602081850181015186830182015201611b20565b505f602082860101526020601f19601f83011685010191505092915050565b848152608060208201525f611b736080830186611b18565b8281036040840152611b858186611b18565b915050821515606083015295945050505050565b803561ffff81168114611baa575f80fd5b919050565b5f8060408385031215611bc0575f80fd5b611bc983611b99565b9150611bd760208401611b99565b90509250929050565b803560038110611baa575f80fd5b80358015158114611baa575f80fd5b5f805f8060808587031215611c10575f80fd5b8435611c1b81611ae6565b9350611c2960208601611be0565b9250611c3760408601611bee565b9150611c4560608601611bee565b905092959194509250565b803563ffffffff81168114611baa575f80fd5b5f8060408385031215611c74575f80fd5b8235611c7f81611ae6565b9150611bd760208401611c50565b5f8151808452602080850194508084015f5b83811015611cbf57815161ffff1687529582019590820190600101611c9f565b509495945050505050565b606080825284519082018190525f906020906080840190828801845b82811015611d0b5781516001600160a01b031684529284019290840190600101611ce6565b50505083810382850152611d1f8187611c8d565b9150508281036040840152611d348185611c8d565b9695505050505050565b5f8083601f840112611d4e575f80fd5b50813567ffffffffffffffff811115611d65575f80fd5b602083019150836020828501011115611d7c575f80fd5b9250929050565b5f805f805f60608688031215611d97575f80fd5b85359450602086013567ffffffffffffffff80821115611db5575f80fd5b611dc189838a01611d3e565b90965094506040880135915080821115611dd9575f80fd5b50611de688828901611d3e565b969995985093965092949392505050565b5f805f805f805f805f60c08a8c031215611e0f575f80fd5b8935985060208a013567ffffffffffffffff80821115611e2d575f80fd5b611e398d838e01611d3e565b909a50985060408c0135915060ff82168214611e53575f80fd5b90965060608b01359080821115611e68575f80fd5b611e748d838e01611d3e565b909750955060808c0135915080821115611e8c575f80fd5b50611e998c828d01611d3e565b9094509250611eac905060a08b01611be0565b90509295985092959850929598565b634e487b7160e01b5f52602160045260245ffd5b60038110611eeb57634e487b7160e01b5f52602160045260245ffd5b9052565b5f6101008a8352806020840152611f088184018b611b18565b905060ff891660408401528281036060840152611f258189611b18565b90508281036080840152611f398188611b18565b915050611f4960a0830186611ecf565b92151560c082015290151560e0909101529695505050505050565b5f60208284031215611f74575f80fd5b5035919050565b5f805f8060808587031215611f8e575f80fd5b8435611f9981611ae6565b9350611fa760208601611c50565b9250611fb560408601611b99565b91506060850135611fc581611ae6565b939692955090935050565b5f805f60608486031215611fe2575f80fd5b8335611fed81611ae6565b9250611ffb60208501611c50565b915061200960408501611b99565b90509250925092565b60208082526018908201527f4f6e6c79206f776e65722063616e2063616c6c20746869730000000000000000604082015260600190565b600181811c9082168061205d57607f821691505b60208210810361207b57634e487b7160e01b5f52602260045260245ffd5b50919050565b634e487b7160e01b5f52601160045260245ffd5b61ffff8181168382160280821691908281146120b3576120b3612081565b505092915050565b61ffff8181168382160190808211156120d6576120d6612081565b5092915050565b604081016120eb8285611ecf565b82151560208301529392505050565b634e487b7160e01b5f52604160045260245ffd5b634e487b7160e01b5f52603260045260245ffd5b5f6001820161213357612133612081565b5060010190565b601f821115612183575f81815260208120601f850160051c810160208610156121605750805b601f850160051c820191505b8181101561217f5782815560010161216c565b5050505b505050565b815167ffffffffffffffff8111156121a2576121a26120fa565b6121b6816121b08454612049565b8461213a565b602080601f8311600181146121e9575f84156121d25750858301515b5f19600386901b1c1916600185901b17855561217f565b5f85815260208120601f198616915b82811015612217578886015182559484019460019091019084016121f8565b508582101561223457878501515f19600388901b60f8161c191681555b5050505050600190811b01905550565b81835281816020850137505f828201602090810191909152601f909101601f19169091010190565b858152606060208201525f612285606083018688612244565b8281036040840152612298818587612244565b98975050505050505050565b89815260c060208201525f6122bd60c083018a8c612244565b60ff8916604084015282810360608401526122d981888a612244565b905082810360808401526122ee818688612244565b9150506122fe60a0830184611ecf565b9a995050505050505050505056fea2646970667358221220a80a201cc541ab8defb918bfb8a247d8a2200814bdc450b1c9de6eee690721d864736f6c63430008140033",
  "immutableReferences": {},
  "source": "// SPDX-License-Identifier: GPL-3.0\n\npragma solidity >=0.7.0 < 0.9.0;\n\n\n/**\n * @title Disaster Response Training Management\n*/\n\ncontract DRTM {\n    \n    // roles\n    address public ownerAddr;\n    mapping(address => bool) public isAdmin;\n\n    modifier onlyOwner() {\n        require(msg.sender == ownerAddr, \"Only owner can call this\");\n        _;\n    }\n\n    modifier onlyAdmin() {\n        require(isAdmin[msg.sender], \"Only admin can call this\");\n        _;\n    }\n\n    enum TrainingType {\n        FirstAid,\n        ShelterRebuild,\n        FoodSafety\n    }\n\n    struct Part {\n        uint256 id;\n        string name;\n        uint8 age;\n        string gender;\n        string district;\n        TrainingType trainingType;\n        bool hasCompletedTraining;\n        bool exists;\n    }\n\n    struct Trainer {\n        uint256 id;\n        string name;\n        string district;\n        bool exists;\n    }\n\n    // Address-indexed registries\n    mapping(address => Part) public parts;\n    mapping(address => Trainer) public trainers;\n\n    // bookings\n    uint256 public bookingFee = 0.000000000000001 ether; // Owner can change preset booking fee.\n\n    struct Bkg {\n        address partAddr;\n        uint32 dayKey;          // floor(utcTimestamp / 86400)\n        uint16 startMin;        // minutes since midnight (for example, 9:00 AM -> 540)\n        uint16 endMin;          // startMin + 30\n        bool exists;\n    }\n\n    // trainer => dayKey => startMin => Booking\n    mapping(address => mapping(uint32 => mapping(uint16 => Bkg))) private bkgs;\n\n    // For iterating a trainer's schedule: store the list of slot keys for that day\n    mapping(address => mapping(uint32 => uint16[])) private trainerDaySlots;\n\n    // events\n    event OwnerTransferred(address indexed oldOwner, address indexed newOwner);\n    event AdminAdded(address indexed admin);\n    event AdminRemoved(address indexed admin);\n\n    event PartRegistered(\n        address indexed addr,\n        uint256 id,\n        string name,\n        uint8 age,\n        string gender,\n        string district,\n        TrainingType trainingType\n    );\n\n    event TrainerRegistered(\n        address indexed addr,\n        uint256 id,\n        string name,\n        string district\n    );\n\n    event PartUpdated(\n        address indexed partAddr,\n        TrainingType trainingType,\n        bool hasCompletedTraining\n    );\n\n    event BookingFeeChanged(uint256 newFee);\n\n    event SlotBooked(\n        address indexed partAddr,\n        address indexed trainerAddr,\n        uint32 indexed dayKey,\n        uint16 startMin,\n        uint16 endMin,\n        address adminPayee,\n        uint256 fee\n    );\n\n    // constructor\n    constructor() {\n        ownerAddr = msg.sender;\n        isAdmin[msg.sender] = true;\n        emit AdminAdded(msg.sender);\n    }\n\n    // Admin methods\n    function transferOwnership(address newOwner) external onlyOwner {\n        require(newOwner != address(0), \"Zero address\");\n        emit OwnerTransferred(ownerAddr, newOwner);\n        ownerAddr = newOwner;\n    }\n\n    function addAdmin(address addr) external onlyOwner {\n        require(addr != address(0), \"Zero address\");\n        require(!isAdmin[addr], \"Already admin\");\n        isAdmin[addr] = true;\n        emit AdminAdded(addr);\n    }\n\n    function removeAdmin(address addr) external onlyOwner {\n        require(addr != ownerAddr, \"Cannot remove owner\");\n        require(isAdmin[addr], \"Not admin\");\n        isAdmin[addr] = false;\n        emit AdminRemoved(addr);\n    }\n\n    function setBookingFee(uint256 newFee) external onlyOwner {\n        bookingFee = newFee;\n        emit BookingFeeChanged(newFee);\n    }\n    \n    // participant registration\n    function registerPart(\n        uint256 _id,\n        string calldata _name,\n        uint8 _age,\n        string calldata _gender,\n        string calldata _district,\n        TrainingType _trainingtype\n    ) external {\n        require(!parts[msg.sender].exists, \"Already registered as participant\");\n        require(bytes(_name).length > 0, \"Name cannot be empty\");\n        require(bytes(_gender).length > 0, \"Gender cannot be empty\");\n        require(bytes(_district).length > 0, \"District cannot be empty\");\n        require(_age > 0, \"Age must be greater than 0\");\n        require(uint8(_trainingtype) <= uint8(TrainingType.FoodSafety), \"Invalid training type\");\n\n        parts[msg.sender] = Part({\n            id: _id,\n            name: _name,\n            age: _age,\n            gender: _gender,\n            district: _district,\n            trainingType: _trainingtype,\n            hasCompletedTraining: false,\n            exists: true\n        });\n\n        emit PartRegistered(\n            msg.sender,\n            _id,\n            _name,\n            _age,\n            _gender,\n            _district,\n            _trainingtype\n        );\n    }\n\n    function registerTrainer(\n        uint256 _id,\n        string calldata _name,\n        string calldata _district\n    ) external {\n        require(!trainers[msg.sender].exists, \"Already registered as trainer\");\n        require(bytes(_name).length > 0, \"Name cannot be empty\");\n        require(bytes(_district).length > 0, \"District cannot be empty\");\n\n        trainers[msg.sender] = Trainer({\n            id: _id,\n            name: _name,\n            district: _district,\n            exists: true\n        });\n\n        emit TrainerRegistered(msg.sender, _id, _name, _district);\n    }\n\n    // participant updates [Admin only]\n    function adminUpdatePart(\n        address partAddr,\n        TrainingType newType,\n        bool updateType,\n        bool setCompletedToTrue\n    ) external onlyAdmin {\n        Part storage p = parts[partAddr];\n        require(p.exists, \"Participant not found\");\n\n        if (updateType) {\n            require(uint8(newType) <= uint8(TrainingType.FoodSafety), \"Invalid training type\");\n            p.trainingType = newType;\n        }\n\n        if (setCompletedToTrue) {\n            require(!p.hasCompletedTraining, \"Already completed; cannot revert\");\n            p.hasCompletedTraining = true;\n        }\n\n        emit PartUpdated(partAddr, p.trainingType, p.hasCompletedTraining);\n    }\n\n    // booking logic\n    function bookSlot(\n        address trainerAddr,\n        uint32 dayKey,\n        uint16 startMin,\n        address payable adminPayee\n    ) external payable {\n        require(parts[msg.sender].exists, \"Register as participant\");\n        require(trainers[trainerAddr].exists, \"Trainer not found\");\n        require(isAdmin[adminPayee], \"Payee must be an admin\");\n        require(msg.value == bookingFee, \"Incorrect booking fee\");\n\n        // Enforce slot bounds & fixed 30-minute duration\n        require(startMin <= 1410, \"Start too late for 30-min slot\"); // 1410 + 30 = 1440\n        uint16 endMin = startMin + 30;\n\n        // Prevent double-booking of the same discrete 30-min slot\n        Bkg storage existing = bkgs[trainerAddr][dayKey][startMin];\n        require(!existing.exists, \"Trainer already booked for this slot\");\n\n        // Record\n        bkgs[trainerAddr][dayKey][startMin] = Bkg({\n            partAddr: msg.sender,\n            dayKey: dayKey,\n            startMin: startMin,\n            endMin: endMin,\n            exists: true\n        });\n        trainerDaySlots[trainerAddr][dayKey].push(startMin);\n\n        // Payout fee to chosen admin\n        (bool sent, ) = adminPayee.call{value: msg.value}(\"\");\n        require(sent, \"Fee transfer failed\");\n\n        emit SlotBooked(\n            msg.sender,\n            trainerAddr,\n            dayKey,\n            startMin,\n            endMin,\n            adminPayee,\n            msg.value\n        );\n    }\n\n    // view schedule\n    function getTrainerSchedByDay(\n        address trainerAddr,\n        uint32 dayKey\n    )\n        external\n        view\n        returns (\n            address[] memory partsOut,\n            uint16[] memory startMinsOut,\n            uint16[] memory endMinsOut\n        )\n    {\n        uint16[] storage keys = trainerDaySlots[trainerAddr][dayKey];\n        uint256 n = keys.length;\n\n        partsOut = new address[](n);\n        startMinsOut = new uint16[](n);\n        endMinsOut = new uint16[](n);\n\n        for (uint256 i = 0; i < n; i++) {\n            uint16 start = keys[i];\n            Bkg storage b = bkgs[trainerAddr][dayKey][start];\n            partsOut[i] = b.partAddr;\n            startMinsOut[i] = b.startMin;\n            endMinsOut[i] = b.endMin;\n        }\n    }\n\n    function getSlot(\n        address trainerAddr,\n        uint32 dayKey,\n        uint16 startMin\n    ) external view returns (Bkg memory) {\n        return bkgs[trainerAddr][dayKey][startMin];\n    }\n    \n    // utilities\n    function hhmmToMins(uint16 hour24, uint16 min) external pure returns (uint16) {\n        require(hour24 < 24 && min < 60, \"Invalid time\");\n        return uint16(hour24 * 60 + min);\n    }\n}",
  "sourcePath": "/home/xordan/Desktop/drtm_dapp/contracts/drtm.sol",
  "compiler": {
    "name": "solc",
    "version": "0.8.20+commit.a1b79de6.Emscripten.clang"
  },
  "schemaVersion": "3.4.16",
  "updatedAt": "2025-08-20T07:30:50.081Z",
  "networkType": "ethereum",
  "devdoc": {
    "kind": "dev",
    "methods": {},
    "title": "Disaster Response Training Management",
    "version": 1
  },
  "userdoc": {
    "kind": "user",
    "methods": {},
    "version": 1
  }
}